{
    "_format": "hh-sol-artifact-1",
    "contractName": "BaseNFT",
    "sourceName": "contracts/BaseNFT.sol",
    "abi": [
        {
            "inputs": [],
            "stateMutability": "nonpayable",
            "type": "constructor"
        },
        {
            "anonymous": false,
            "inputs": [
                {
                    "indexed": true,
                    "internalType": "address",
                    "name": "owner",
                    "type": "address"
                },
                {
                    "indexed": true,
                    "internalType": "address",
                    "name": "approved",
                    "type": "address"
                },
                {
                    "indexed": true,
                    "internalType": "uint256",
                    "name": "tokenId",
                    "type": "uint256"
                }
            ],
            "name": "Approval",
            "type": "event"
        },
        {
            "anonymous": false,
            "inputs": [
                {
                    "indexed": true,
                    "internalType": "address",
                    "name": "owner",
                    "type": "address"
                },
                {
                    "indexed": true,
                    "internalType": "address",
                    "name": "operator",
                    "type": "address"
                },
                {
                    "indexed": false,
                    "internalType": "bool",
                    "name": "approved",
                    "type": "bool"
                }
            ],
            "name": "ApprovalForAll",
            "type": "event"
        },
        {
            "anonymous": false,
            "inputs": [
                {
                    "indexed": true,
                    "internalType": "address",
                    "name": "previousOwner",
                    "type": "address"
                },
                {
                    "indexed": true,
                    "internalType": "address",
                    "name": "newOwner",
                    "type": "address"
                }
            ],
            "name": "OwnershipTransferred",
            "type": "event"
        },
        {
            "anonymous": false,
            "inputs": [
                {
                    "indexed": true,
                    "internalType": "address",
                    "name": "from",
                    "type": "address"
                },
                {
                    "indexed": true,
                    "internalType": "address",
                    "name": "to",
                    "type": "address"
                },
                {
                    "indexed": true,
                    "internalType": "uint256",
                    "name": "tokenId",
                    "type": "uint256"
                }
            ],
            "name": "Transfer",
            "type": "event"
        },
        {
            "inputs": [],
            "name": "MINT_PRICE",
            "outputs": [
                {
                    "internalType": "uint256",
                    "name": "",
                    "type": "uint256"
                }
            ],
            "stateMutability": "view",
            "type": "function"
        },
        {
            "inputs": [
                {
                    "internalType": "address",
                    "name": "to",
                    "type": "address"
                },
                {
                    "internalType": "uint256",
                    "name": "tokenId",
                    "type": "uint256"
                }
            ],
            "name": "approve",
            "outputs": [],
            "stateMutability": "nonpayable",
            "type": "function"
        },
        {
            "inputs": [
                {
                    "internalType": "address",
                    "name": "owner",
                    "type": "address"
                }
            ],
            "name": "balanceOf",
            "outputs": [
                {
                    "internalType": "uint256",
                    "name": "",
                    "type": "uint256"
                }
            ],
            "stateMutability": "view",
            "type": "function"
        },
        {
            "inputs": [
                {
                    "internalType": "uint256",
                    "name": "tokenId",
                    "type": "uint256"
                }
            ],
            "name": "getApproved",
            "outputs": [
                {
                    "internalType": "address",
                    "name": "",
                    "type": "address"
                }
            ],
            "stateMutability": "view",
            "type": "function"
        },
        {
            "inputs": [
                {
                    "internalType": "address",
                    "name": "owner",
                    "type": "address"
                },
                {
                    "internalType": "address",
                    "name": "operator",
                    "type": "address"
                }
            ],
            "name": "isApprovedForAll",
            "outputs": [
                {
                    "internalType": "bool",
                    "name": "",
                    "type": "bool"
                }
            ],
            "stateMutability": "view",
            "type": "function"
        },
        {
            "inputs": [],
            "name": "mintNFTTicket",
            "outputs": [],
            "stateMutability": "payable",
            "type": "function"
        },
        {
            "inputs": [],
            "name": "name",
            "outputs": [
                {
                    "internalType": "string",
                    "name": "",
                    "type": "string"
                }
            ],
            "stateMutability": "view",
            "type": "function"
        },
        {
            "inputs": [],
            "name": "owner",
            "outputs": [
                {
                    "internalType": "address",
                    "name": "",
                    "type": "address"
                }
            ],
            "stateMutability": "view",
            "type": "function"
        },
        {
            "inputs": [
                {
                    "internalType": "uint256",
                    "name": "tokenId",
                    "type": "uint256"
                }
            ],
            "name": "ownerOf",
            "outputs": [
                {
                    "internalType": "address",
                    "name": "",
                    "type": "address"
                }
            ],
            "stateMutability": "view",
            "type": "function"
        },
        {
            "inputs": [],
            "name": "renounceOwnership",
            "outputs": [],
            "stateMutability": "nonpayable",
            "type": "function"
        },
        {
            "inputs": [
                {
                    "internalType": "address",
                    "name": "from",
                    "type": "address"
                },
                {
                    "internalType": "address",
                    "name": "to",
                    "type": "address"
                },
                {
                    "internalType": "uint256",
                    "name": "tokenId",
                    "type": "uint256"
                }
            ],
            "name": "safeTransferFrom",
            "outputs": [],
            "stateMutability": "nonpayable",
            "type": "function"
        },
        {
            "inputs": [
                {
                    "internalType": "address",
                    "name": "from",
                    "type": "address"
                },
                {
                    "internalType": "address",
                    "name": "to",
                    "type": "address"
                },
                {
                    "internalType": "uint256",
                    "name": "tokenId",
                    "type": "uint256"
                },
                {
                    "internalType": "bytes",
                    "name": "_data",
                    "type": "bytes"
                }
            ],
            "name": "safeTransferFrom",
            "outputs": [],
            "stateMutability": "nonpayable",
            "type": "function"
        },
        {
            "inputs": [
                {
                    "internalType": "address",
                    "name": "operator",
                    "type": "address"
                },
                {
                    "internalType": "bool",
                    "name": "approved",
                    "type": "bool"
                }
            ],
            "name": "setApprovalForAll",
            "outputs": [],
            "stateMutability": "nonpayable",
            "type": "function"
        },
        {
            "inputs": [
                {
                    "internalType": "uint256",
                    "name": "_price",
                    "type": "uint256"
                }
            ],
            "name": "setMintPrice",
            "outputs": [],
            "stateMutability": "nonpayable",
            "type": "function"
        },
        {
            "inputs": [
                {
                    "internalType": "bytes4",
                    "name": "interfaceId",
                    "type": "bytes4"
                }
            ],
            "name": "supportsInterface",
            "outputs": [
                {
                    "internalType": "bool",
                    "name": "",
                    "type": "bool"
                }
            ],
            "stateMutability": "view",
            "type": "function"
        },
        {
            "inputs": [],
            "name": "symbol",
            "outputs": [
                {
                    "internalType": "string",
                    "name": "",
                    "type": "string"
                }
            ],
            "stateMutability": "view",
            "type": "function"
        },
        {
            "inputs": [
                {
                    "internalType": "uint256",
                    "name": "tokenId",
                    "type": "uint256"
                }
            ],
            "name": "tokenURI",
            "outputs": [
                {
                    "internalType": "string",
                    "name": "",
                    "type": "string"
                }
            ],
            "stateMutability": "view",
            "type": "function"
        },
        {
            "inputs": [
                {
                    "internalType": "address",
                    "name": "from",
                    "type": "address"
                },
                {
                    "internalType": "address",
                    "name": "to",
                    "type": "address"
                },
                {
                    "internalType": "uint256",
                    "name": "tokenId",
                    "type": "uint256"
                }
            ],
            "name": "transferFrom",
            "outputs": [],
            "stateMutability": "nonpayable",
            "type": "function"
        },
        {
            "inputs": [
                {
                    "internalType": "address",
                    "name": "newOwner",
                    "type": "address"
                }
            ],
            "name": "transferOwnership",
            "outputs": [],
            "stateMutability": "nonpayable",
            "type": "function"
        }
    ],
    "bytecode": "0x6080604052662386f26fc100006009553480156200001c57600080fd5b506040518060400160405280601381526020017f42617365204e465420666f72206672616d6573000000000000000000000000008152506040518060400160405280600481526020017f424153450000000000000000000000000000000000000000000000000000000081525081600090816200009a919062000570565b508060019081620000ac919062000570565b505050620000cf620000c36200011b60201b60201c565b6200012360201b60201c565b620001156040518060400160405280600c81526020017f506c6561736520776f726b210000000000000000000000000000000000000000815250620001e960201b60201c565b62000739565b600033905090565b6000600760009054906101000a900473ffffffffffffffffffffffffffffffffffffffff16905081600760006101000a81548173ffffffffffffffffffffffffffffffffffffffff021916908373ffffffffffffffffffffffffffffffffffffffff1602179055508173ffffffffffffffffffffffffffffffffffffffff168173ffffffffffffffffffffffffffffffffffffffff167f8be0079c531659141344cd1fd0a4f28419497f9722a3daafe3b4186f6b6457e060405160405180910390a35050565b6200028981604051602401620002009190620006e6565b6040516020818303038152906040527f41304fac000000000000000000000000000000000000000000000000000000007bffffffffffffffffffffffffffffffffffffffffffffffffffffffff19166020820180517bffffffffffffffffffffffffffffffffffffffffffffffffffffffff83818316178352505050506200028c60201b60201c565b50565b620002b281620002ad620002b560201b62000f2217620002d660201b60201c565b60201c565b50565b60006a636f6e736f6c652e6c6f679050600080835160208501845afa505050565b620002ea60201b62001d3d17819050919050565b620002f46200070a565b565b600081519050919050565b7f4e487b7100000000000000000000000000000000000000000000000000000000600052604160045260246000fd5b7f4e487b7100000000000000000000000000000000000000000000000000000000600052602260045260246000fd5b600060028204905060018216806200037857607f821691505b6020821081036200038e576200038d62000330565b5b50919050565b60008190508160005260206000209050919050565b60006020601f8301049050919050565b600082821b905092915050565b600060088302620003f87fffffffffffffffffffffffffffffffffffffffffffffffffffffffffffffffff82620003b9565b620004048683620003b9565b95508019841693508086168417925050509392505050565b6000819050919050565b6000819050919050565b6000620004516200044b62000445846200041c565b62000426565b6200041c565b9050919050565b6000819050919050565b6200046d8362000430565b620004856200047c8262000458565b848454620003c6565b825550505050565b600090565b6200049c6200048d565b620004a981848462000462565b505050565b5b81811015620004d157620004c560008262000492565b600181019050620004af565b5050565b601f8211156200052057620004ea8162000394565b620004f584620003a9565b8101602085101562000505578190505b6200051d6200051485620003a9565b830182620004ae565b50505b505050565b600082821c905092915050565b6000620005456000198460080262000525565b1980831691505092915050565b600062000560838362000532565b9150826002028217905092915050565b6200057b82620002f6565b67ffffffffffffffff81111562000597576200059662000301565b5b620005a382546200035f565b620005b0828285620004d5565b600060209050601f831160018114620005e85760008415620005d3578287015190505b620005df858262000552565b8655506200064f565b601f198416620005f88662000394565b60005b828110156200062257848901518255600182019150602085019450602081019050620005fb565b868310156200064257848901516200063e601f89168262000532565b8355505b6001600288020188555050505b505050505050565b600082825260208201905092915050565b60005b83811015620006885780820151818401526020810190506200066b565b60008484015250505050565b6000601f19601f8301169050919050565b6000620006b282620002f6565b620006be818562000657565b9350620006d081856020860162000668565b620006db8162000694565b840191505092915050565b60006020820190508181036000830152620007028184620006a5565b905092915050565b7f4e487b7100000000000000000000000000000000000000000000000000000000600052605160045260246000fd5b61337380620007496000396000f3fe6080604052600436106101145760003560e01c8063715018a6116100a0578063c002d23d11610064578063c002d23d1461037c578063c87b56dd146103a7578063e985e9c5146103e4578063f2fde38b14610421578063f4a0a5281461044a57610114565b8063715018a6146102bd5780638da5cb5b146102d457806395d89b41146102ff578063a22cb4651461032a578063b88d4fde1461035357610114565b80631d22124c116100e75780631d22124c146101e757806323b872dd146101f157806342842e0e1461021a5780636352211e1461024357806370a082311461028057610114565b806301ffc9a71461011957806306fdde0314610156578063081812fc14610181578063095ea7b3146101be575b600080fd5b34801561012557600080fd5b50610140600480360381019061013b9190611db3565b610473565b60405161014d9190611dfb565b60405180910390f35b34801561016257600080fd5b5061016b610555565b6040516101789190611ea6565b60405180910390f35b34801561018d57600080fd5b506101a860048036038101906101a39190611efe565b6105e7565b6040516101b59190611f6c565b60405180910390f35b3480156101ca57600080fd5b506101e560048036038101906101e09190611fb3565b61066c565b005b6101ef610783565b005b3480156101fd57600080fd5b5061021860048036038101906102139190611ff3565b610816565b005b34801561022657600080fd5b50610241600480360381019061023c9190611ff3565b610876565b005b34801561024f57600080fd5b5061026a60048036038101906102659190611efe565b610896565b6040516102779190611f6c565b60405180910390f35b34801561028c57600080fd5b506102a760048036038101906102a29190612046565b610947565b6040516102b49190612082565b60405180910390f35b3480156102c957600080fd5b506102d26109fe565b005b3480156102e057600080fd5b506102e9610a86565b6040516102f69190611f6c565b60405180910390f35b34801561030b57600080fd5b50610314610ab0565b6040516103219190611ea6565b60405180910390f35b34801561033657600080fd5b50610351600480360381019061034c91906120c9565b610b42565b005b34801561035f57600080fd5b5061037a6004803603810190610375919061223e565b610b58565b005b34801561038857600080fd5b50610391610bba565b60405161039e9190612082565b60405180910390f35b3480156103b357600080fd5b506103ce60048036038101906103c99190611efe565b610bc0565b6040516103db9190611ea6565b60405180910390f35b3480156103f057600080fd5b5061040b600480360381019061040691906122c1565b610d11565b6040516104189190611dfb565b60405180910390f35b34801561042d57600080fd5b5061044860048036038101906104439190612046565b610da5565b005b34801561045657600080fd5b50610471600480360381019061046c9190611efe565b610e9c565b005b60007f80ac58cd000000000000000000000000000000000000000000000000000000007bffffffffffffffffffffffffffffffffffffffffffffffffffffffff1916827bffffffffffffffffffffffffffffffffffffffffffffffffffffffff1916148061053e57507f5b5e139f000000000000000000000000000000000000000000000000000000007bffffffffffffffffffffffffffffffffffffffffffffffffffffffff1916827bffffffffffffffffffffffffffffffffffffffffffffffffffffffff1916145b8061054e575061054d82610f43565b5b9050919050565b60606000805461056490612330565b80601f016020809104026020016040519081016040528092919081815260200182805461059090612330565b80156105dd5780601f106105b2576101008083540402835291602001916105dd565b820191906000526020600020905b8154815290600101906020018083116105c057829003601f168201915b5050505050905090565b60006105f282610fad565b610631576040517f08c379a0000000000000000000000000000000000000000000000000000000008152600401610628906123d3565b60405180910390fd5b6004600083815260200190815260200160002060009054906101000a900473ffffffffffffffffffffffffffffffffffffffff169050919050565b600061067782610896565b90508073ffffffffffffffffffffffffffffffffffffffff168373ffffffffffffffffffffffffffffffffffffffff16036106e7576040517f08c379a00000000000000000000000000000000000000000000000000000000081526004016106de90612465565b60405180910390fd5b8073ffffffffffffffffffffffffffffffffffffffff16610706611019565b73ffffffffffffffffffffffffffffffffffffffff16148061073557506107348161072f611019565b610d11565b5b610774576040517f08c379a000000000000000000000000000000000000000000000000000000000815260040161076b906124f7565b60405180910390fd5b61077e8383611021565b505050565b6009543410156107c8576040517f08c379a00000000000000000000000000000000000000000000000000000000081526004016107bf90612563565b60405180910390fd5b600060085490506107d933826110da565b6107fb81604051806060016040528060358152602001613309603591396110f8565b6008600081548092919061080e906125b2565b919050555050565b610827610821611019565b82611165565b610866576040517f08c379a000000000000000000000000000000000000000000000000000000000815260040161085d9061266c565b60405180910390fd5b610871838383611243565b505050565b61089183838360405180602001604052806000815250610b58565b505050565b6000806002600084815260200190815260200160002060009054906101000a900473ffffffffffffffffffffffffffffffffffffffff169050600073ffffffffffffffffffffffffffffffffffffffff168173ffffffffffffffffffffffffffffffffffffffff160361093e576040517f08c379a0000000000000000000000000000000000000000000000000000000008152600401610935906126fe565b60405180910390fd5b80915050919050565b60008073ffffffffffffffffffffffffffffffffffffffff168273ffffffffffffffffffffffffffffffffffffffff16036109b7576040517f08c379a00000000000000000000000000000000000000000000000000000000081526004016109ae90612790565b60405180910390fd5b600360008373ffffffffffffffffffffffffffffffffffffffff1673ffffffffffffffffffffffffffffffffffffffff168152602001908152602001600020549050919050565b610a06611019565b73ffffffffffffffffffffffffffffffffffffffff16610a24610a86565b73ffffffffffffffffffffffffffffffffffffffff1614610a7a576040517f08c379a0000000000000000000000000000000000000000000000000000000008152600401610a71906127fc565b60405180910390fd5b610a8460006114a9565b565b6000600760009054906101000a900473ffffffffffffffffffffffffffffffffffffffff16905090565b606060018054610abf90612330565b80601f0160208091040260200160405190810160405280929190818152602001828054610aeb90612330565b8015610b385780601f10610b0d57610100808354040283529160200191610b38565b820191906000526020600020905b815481529060010190602001808311610b1b57829003601f168201915b5050505050905090565b610b54610b4d611019565b838361156f565b5050565b610b69610b63611019565b83611165565b610ba8576040517f08c379a0000000000000000000000000000000000000000000000000000000008152600401610b9f9061266c565b60405180910390fd5b610bb4848484846116db565b50505050565b60095481565b6060610bcb82610fad565b610c0a576040517f08c379a0000000000000000000000000000000000000000000000000000000008152600401610c019061288e565b60405180910390fd5b6000600660008481526020019081526020016000208054610c2a90612330565b80601f0160208091040260200160405190810160405280929190818152602001828054610c5690612330565b8015610ca35780601f10610c7857610100808354040283529160200191610ca3565b820191906000526020600020905b815481529060010190602001808311610c8657829003601f168201915b505050505090506000610cb4611737565b90506000815103610cc9578192505050610d0c565b600082511115610cfe578082604051602001610ce69291906128ea565b60405160208183030381529060405292505050610d0c565b610d078461174e565b925050505b919050565b6000600560008473ffffffffffffffffffffffffffffffffffffffff1673ffffffffffffffffffffffffffffffffffffffff16815260200190815260200160002060008373ffffffffffffffffffffffffffffffffffffffff1673ffffffffffffffffffffffffffffffffffffffff16815260200190815260200160002060009054906101000a900460ff16905092915050565b610dad611019565b73ffffffffffffffffffffffffffffffffffffffff16610dcb610a86565b73ffffffffffffffffffffffffffffffffffffffff1614610e21576040517f08c379a0000000000000000000000000000000000000000000000000000000008152600401610e18906127fc565b60405180910390fd5b600073ffffffffffffffffffffffffffffffffffffffff168173ffffffffffffffffffffffffffffffffffffffff1603610e90576040517f08c379a0000000000000000000000000000000000000000000000000000000008152600401610e8790612980565b60405180910390fd5b610e99816114a9565b50565b610ea4611019565b73ffffffffffffffffffffffffffffffffffffffff16610ec2610a86565b73ffffffffffffffffffffffffffffffffffffffff1614610f18576040517f08c379a0000000000000000000000000000000000000000000000000000000008152600401610f0f906127fc565b60405180910390fd5b8060098190555050565b60006a636f6e736f6c652e6c6f679050600080835160208501845afa505050565b60007f01ffc9a7000000000000000000000000000000000000000000000000000000007bffffffffffffffffffffffffffffffffffffffffffffffffffffffff1916827bffffffffffffffffffffffffffffffffffffffffffffffffffffffff1916149050919050565b60008073ffffffffffffffffffffffffffffffffffffffff166002600084815260200190815260200160002060009054906101000a900473ffffffffffffffffffffffffffffffffffffffff1673ffffffffffffffffffffffffffffffffffffffff1614159050919050565b600033905090565b816004600083815260200190815260200160002060006101000a81548173ffffffffffffffffffffffffffffffffffffffff021916908373ffffffffffffffffffffffffffffffffffffffff160217905550808273ffffffffffffffffffffffffffffffffffffffff1661109483610896565b73ffffffffffffffffffffffffffffffffffffffff167f8c5be1e5ebec7d5bd14f71427d1e84f3dd0314c0f7b2291e5b200ac8c7c3b92560405160405180910390a45050565b6110f48282604051806020016040528060008152506117f5565b5050565b61110182610fad565b611140576040517f08c379a000000000000000000000000000000000000000000000000000000000815260040161113790612a12565b60405180910390fd5b806006600084815260200190815260200160002090816111609190612bde565b505050565b600061117082610fad565b6111af576040517f08c379a00000000000000000000000000000000000000000000000000000000081526004016111a690612d22565b60405180910390fd5b60006111ba83610896565b90508073ffffffffffffffffffffffffffffffffffffffff168473ffffffffffffffffffffffffffffffffffffffff16148061122957508373ffffffffffffffffffffffffffffffffffffffff16611211846105e7565b73ffffffffffffffffffffffffffffffffffffffff16145b8061123a57506112398185610d11565b5b91505092915050565b8273ffffffffffffffffffffffffffffffffffffffff1661126382610896565b73ffffffffffffffffffffffffffffffffffffffff16146112b9576040517f08c379a00000000000000000000000000000000000000000000000000000000081526004016112b090612db4565b60405180910390fd5b600073ffffffffffffffffffffffffffffffffffffffff168273ffffffffffffffffffffffffffffffffffffffff1603611328576040517f08c379a000000000000000000000000000000000000000000000000000000000815260040161131f90612e46565b60405180910390fd5b611333838383611850565b61133e600082611021565b6001600360008573ffffffffffffffffffffffffffffffffffffffff1673ffffffffffffffffffffffffffffffffffffffff168152602001908152602001600020600082825461138e9190612e66565b925050819055506001600360008473ffffffffffffffffffffffffffffffffffffffff1673ffffffffffffffffffffffffffffffffffffffff16815260200190815260200160002060008282546113e59190612e9a565b92505081905550816002600083815260200190815260200160002060006101000a81548173ffffffffffffffffffffffffffffffffffffffff021916908373ffffffffffffffffffffffffffffffffffffffff160217905550808273ffffffffffffffffffffffffffffffffffffffff168473ffffffffffffffffffffffffffffffffffffffff167fddf252ad1be2c89b69c2b068fc378daa952ba7f163c4a11628f55a4df523b3ef60405160405180910390a46114a4838383611855565b505050565b6000600760009054906101000a900473ffffffffffffffffffffffffffffffffffffffff16905081600760006101000a81548173ffffffffffffffffffffffffffffffffffffffff021916908373ffffffffffffffffffffffffffffffffffffffff1602179055508173ffffffffffffffffffffffffffffffffffffffff168173ffffffffffffffffffffffffffffffffffffffff167f8be0079c531659141344cd1fd0a4f28419497f9722a3daafe3b4186f6b6457e060405160405180910390a35050565b8173ffffffffffffffffffffffffffffffffffffffff168373ffffffffffffffffffffffffffffffffffffffff16036115dd576040517f08c379a00000000000000000000000000000000000000000000000000000000081526004016115d490612f1a565b60405180910390fd5b80600560008573ffffffffffffffffffffffffffffffffffffffff1673ffffffffffffffffffffffffffffffffffffffff16815260200190815260200160002060008473ffffffffffffffffffffffffffffffffffffffff1673ffffffffffffffffffffffffffffffffffffffff16815260200190815260200160002060006101000a81548160ff0219169083151502179055508173ffffffffffffffffffffffffffffffffffffffff168373ffffffffffffffffffffffffffffffffffffffff167f17307eab39ab6107e8899845ad3d59bd9653f200f220920489ca2b5937696c31836040516116ce9190611dfb565b60405180910390a3505050565b6116e6848484611243565b6116f28484848461185a565b611731576040517f08c379a000000000000000000000000000000000000000000000000000000000815260040161172890612fac565b60405180910390fd5b50505050565b606060405180602001604052806000815250905090565b606061175982610fad565b611798576040517f08c379a000000000000000000000000000000000000000000000000000000000815260040161178f9061303e565b60405180910390fd5b60006117a2611737565b905060008151116117c257604051806020016040528060008152506117ed565b806117cc846119e1565b6040516020016117dd9291906128ea565b6040516020818303038152906040525b915050919050565b6117ff8383611b41565b61180c600084848461185a565b61184b576040517f08c379a000000000000000000000000000000000000000000000000000000000815260040161184290612fac565b60405180910390fd5b505050565b505050565b505050565b600061187b8473ffffffffffffffffffffffffffffffffffffffff16611d1a565b156119d4578373ffffffffffffffffffffffffffffffffffffffff1663150b7a026118a4611019565b8786866040518563ffffffff1660e01b81526004016118c694939291906130b3565b6020604051808303816000875af192505050801561190257506040513d601f19601f820116820180604052508101906118ff9190613114565b60015b611984573d8060008114611932576040519150601f19603f3d011682016040523d82523d6000602084013e611937565b606091505b50600081510361197c576040517f08c379a000000000000000000000000000000000000000000000000000000000815260040161197390612fac565b60405180910390fd5b805181602001fd5b63150b7a0260e01b7bffffffffffffffffffffffffffffffffffffffffffffffffffffffff1916817bffffffffffffffffffffffffffffffffffffffffffffffffffffffff1916149150506119d9565b600190505b949350505050565b606060008203611a28576040518060400160405280600181526020017f30000000000000000000000000000000000000000000000000000000000000008152509050611b3c565b600082905060005b60008214611a5a578080611a43906125b2565b915050600a82611a539190613170565b9150611a30565b60008167ffffffffffffffff811115611a7657611a75612113565b5b6040519080825280601f01601f191660200182016040528015611aa85781602001600182028036833780820191505090505b5090505b60008514611b3557600182611ac19190612e66565b9150600a85611ad091906131a1565b6030611adc9190612e9a565b60f81b818381518110611af257611af16131d2565b5b60200101907effffffffffffffffffffffffffffffffffffffffffffffffffffffffffffff1916908160001a905350600a85611b2e9190613170565b9450611aac565b8093505050505b919050565b600073ffffffffffffffffffffffffffffffffffffffff168273ffffffffffffffffffffffffffffffffffffffff1603611bb0576040517f08c379a0000000000000000000000000000000000000000000000000000000008152600401611ba79061324d565b60405180910390fd5b611bb981610fad565b15611bf9576040517f08c379a0000000000000000000000000000000000000000000000000000000008152600401611bf0906132b9565b60405180910390fd5b611c0560008383611850565b6001600360008473ffffffffffffffffffffffffffffffffffffffff1673ffffffffffffffffffffffffffffffffffffffff1681526020019081526020016000206000828254611c559190612e9a565b92505081905550816002600083815260200190815260200160002060006101000a81548173ffffffffffffffffffffffffffffffffffffffff021916908373ffffffffffffffffffffffffffffffffffffffff160217905550808273ffffffffffffffffffffffffffffffffffffffff16600073ffffffffffffffffffffffffffffffffffffffff167fddf252ad1be2c89b69c2b068fc378daa952ba7f163c4a11628f55a4df523b3ef60405160405180910390a4611d1660008383611855565b5050565b6000808273ffffffffffffffffffffffffffffffffffffffff163b119050919050565b611d456132d9565b565b6000604051905090565b600080fd5b600080fd5b60007fffffffff0000000000000000000000000000000000000000000000000000000082169050919050565b611d9081611d5b565b8114611d9b57600080fd5b50565b600081359050611dad81611d87565b92915050565b600060208284031215611dc957611dc8611d51565b5b6000611dd784828501611d9e565b91505092915050565b60008115159050919050565b611df581611de0565b82525050565b6000602082019050611e106000830184611dec565b92915050565b600081519050919050565b600082825260208201905092915050565b60005b83811015611e50578082015181840152602081019050611e35565b60008484015250505050565b6000601f19601f8301169050919050565b6000611e7882611e16565b611e828185611e21565b9350611e92818560208601611e32565b611e9b81611e5c565b840191505092915050565b60006020820190508181036000830152611ec08184611e6d565b905092915050565b6000819050919050565b611edb81611ec8565b8114611ee657600080fd5b50565b600081359050611ef881611ed2565b92915050565b600060208284031215611f1457611f13611d51565b5b6000611f2284828501611ee9565b91505092915050565b600073ffffffffffffffffffffffffffffffffffffffff82169050919050565b6000611f5682611f2b565b9050919050565b611f6681611f4b565b82525050565b6000602082019050611f816000830184611f5d565b92915050565b611f9081611f4b565b8114611f9b57600080fd5b50565b600081359050611fad81611f87565b92915050565b60008060408385031215611fca57611fc9611d51565b5b6000611fd885828601611f9e565b9250506020611fe985828601611ee9565b9150509250929050565b60008060006060848603121561200c5761200b611d51565b5b600061201a86828701611f9e565b935050602061202b86828701611f9e565b925050604061203c86828701611ee9565b9150509250925092565b60006020828403121561205c5761205b611d51565b5b600061206a84828501611f9e565b91505092915050565b61207c81611ec8565b82525050565b60006020820190506120976000830184612073565b92915050565b6120a681611de0565b81146120b157600080fd5b50565b6000813590506120c38161209d565b92915050565b600080604083850312156120e0576120df611d51565b5b60006120ee85828601611f9e565b92505060206120ff858286016120b4565b9150509250929050565b600080fd5b600080fd5b7f4e487b7100000000000000000000000000000000000000000000000000000000600052604160045260246000fd5b61214b82611e5c565b810181811067ffffffffffffffff8211171561216a57612169612113565b5b80604052505050565b600061217d611d47565b90506121898282612142565b919050565b600067ffffffffffffffff8211156121a9576121a8612113565b5b6121b282611e5c565b9050602081019050919050565b82818337600083830152505050565b60006121e16121dc8461218e565b612173565b9050828152602081018484840111156121fd576121fc61210e565b5b6122088482856121bf565b509392505050565b600082601f83011261222557612224612109565b5b81356122358482602086016121ce565b91505092915050565b6000806000806080858703121561225857612257611d51565b5b600061226687828801611f9e565b945050602061227787828801611f9e565b935050604061228887828801611ee9565b925050606085013567ffffffffffffffff8111156122a9576122a8611d56565b5b6122b587828801612210565b91505092959194509250565b600080604083850312156122d8576122d7611d51565b5b60006122e685828601611f9e565b92505060206122f785828601611f9e565b9150509250929050565b7f4e487b7100000000000000000000000000000000000000000000000000000000600052602260045260246000fd5b6000600282049050600182168061234857607f821691505b60208210810361235b5761235a612301565b5b50919050565b7f4552433732313a20617070726f76656420717565727920666f72206e6f6e657860008201527f697374656e7420746f6b656e0000000000000000000000000000000000000000602082015250565b60006123bd602c83611e21565b91506123c882612361565b604082019050919050565b600060208201905081810360008301526123ec816123b0565b9050919050565b7f4552433732313a20617070726f76616c20746f2063757272656e74206f776e6560008201527f7200000000000000000000000000000000000000000000000000000000000000602082015250565b600061244f602183611e21565b915061245a826123f3565b604082019050919050565b6000602082019050818103600083015261247e81612442565b9050919050565b7f4552433732313a20617070726f76652063616c6c6572206973206e6f74206f7760008201527f6e6572206e6f7220617070726f76656420666f7220616c6c0000000000000000602082015250565b60006124e1603883611e21565b91506124ec82612485565b604082019050919050565b60006020820190508181036000830152612510816124d4565b9050919050565b7f496e73756666696369656e74207061796d656e74000000000000000000000000600082015250565b600061254d601483611e21565b915061255882612517565b602082019050919050565b6000602082019050818103600083015261257c81612540565b9050919050565b7f4e487b7100000000000000000000000000000000000000000000000000000000600052601160045260246000fd5b60006125bd82611ec8565b91507fffffffffffffffffffffffffffffffffffffffffffffffffffffffffffffffff82036125ef576125ee612583565b5b600182019050919050565b7f4552433732313a207472616e736665722063616c6c6572206973206e6f74206f60008201527f776e6572206e6f7220617070726f766564000000000000000000000000000000602082015250565b6000612656603183611e21565b9150612661826125fa565b604082019050919050565b6000602082019050818103600083015261268581612649565b9050919050565b7f4552433732313a206f776e657220717565727920666f72206e6f6e657869737460008201527f656e7420746f6b656e0000000000000000000000000000000000000000000000602082015250565b60006126e8602983611e21565b91506126f38261268c565b604082019050919050565b60006020820190508181036000830152612717816126db565b9050919050565b7f4552433732313a2062616c616e636520717565727920666f7220746865207a6560008201527f726f206164647265737300000000000000000000000000000000000000000000602082015250565b600061277a602a83611e21565b91506127858261271e565b604082019050919050565b600060208201905081810360008301526127a98161276d565b9050919050565b7f4f776e61626c653a2063616c6c6572206973206e6f7420746865206f776e6572600082015250565b60006127e6602083611e21565b91506127f1826127b0565b602082019050919050565b60006020820190508181036000830152612815816127d9565b9050919050565b7f45524337323155524953746f726167653a2055524920717565727920666f722060008201527f6e6f6e6578697374656e7420746f6b656e000000000000000000000000000000602082015250565b6000612878603183611e21565b91506128838261281c565b604082019050919050565b600060208201905081810360008301526128a78161286b565b9050919050565b600081905092915050565b60006128c482611e16565b6128ce81856128ae565b93506128de818560208601611e32565b80840191505092915050565b60006128f682856128b9565b915061290282846128b9565b91508190509392505050565b7f4f776e61626c653a206e6577206f776e657220697320746865207a65726f206160008201527f6464726573730000000000000000000000000000000000000000000000000000602082015250565b600061296a602683611e21565b91506129758261290e565b604082019050919050565b600060208201905081810360008301526129998161295d565b9050919050565b7f45524337323155524953746f726167653a2055524920736574206f66206e6f6e60008201527f6578697374656e7420746f6b656e000000000000000000000000000000000000602082015250565b60006129fc602e83611e21565b9150612a07826129a0565b604082019050919050565b60006020820190508181036000830152612a2b816129ef565b9050919050565b60008190508160005260206000209050919050565b60006020601f8301049050919050565b600082821b905092915050565b600060088302612a947fffffffffffffffffffffffffffffffffffffffffffffffffffffffffffffffff82612a57565b612a9e8683612a57565b95508019841693508086168417925050509392505050565b6000819050919050565b6000612adb612ad6612ad184611ec8565b612ab6565b611ec8565b9050919050565b6000819050919050565b612af583612ac0565b612b09612b0182612ae2565b848454612a64565b825550505050565b600090565b612b1e612b11565b612b29818484612aec565b505050565b5b81811015612b4d57612b42600082612b16565b600181019050612b2f565b5050565b601f821115612b9257612b6381612a32565b612b6c84612a47565b81016020851015612b7b578190505b612b8f612b8785612a47565b830182612b2e565b50505b505050565b600082821c905092915050565b6000612bb560001984600802612b97565b1980831691505092915050565b6000612bce8383612ba4565b9150826002028217905092915050565b612be782611e16565b67ffffffffffffffff811115612c0057612bff612113565b5b612c0a8254612330565b612c15828285612b51565b600060209050601f831160018114612c485760008415612c36578287015190505b612c408582612bc2565b865550612ca8565b601f198416612c5686612a32565b60005b82811015612c7e57848901518255600182019150602085019450602081019050612c59565b86831015612c9b5784890151612c97601f891682612ba4565b8355505b6001600288020188555050505b505050505050565b7f4552433732313a206f70657261746f7220717565727920666f72206e6f6e657860008201527f697374656e7420746f6b656e0000000000000000000000000000000000000000602082015250565b6000612d0c602c83611e21565b9150612d1782612cb0565b604082019050919050565b60006020820190508181036000830152612d3b81612cff565b9050919050565b7f4552433732313a207472616e736665722066726f6d20696e636f72726563742060008201527f6f776e6572000000000000000000000000000000000000000000000000000000602082015250565b6000612d9e602583611e21565b9150612da982612d42565b604082019050919050565b60006020820190508181036000830152612dcd81612d91565b9050919050565b7f4552433732313a207472616e7366657220746f20746865207a65726f2061646460008201527f7265737300000000000000000000000000000000000000000000000000000000602082015250565b6000612e30602483611e21565b9150612e3b82612dd4565b604082019050919050565b60006020820190508181036000830152612e5f81612e23565b9050919050565b6000612e7182611ec8565b9150612e7c83611ec8565b9250828203905081811115612e9457612e93612583565b5b92915050565b6000612ea582611ec8565b9150612eb083611ec8565b9250828201905080821115612ec857612ec7612583565b5b92915050565b7f4552433732313a20617070726f766520746f2063616c6c657200000000000000600082015250565b6000612f04601983611e21565b9150612f0f82612ece565b602082019050919050565b60006020820190508181036000830152612f3381612ef7565b9050919050565b7f4552433732313a207472616e7366657220746f206e6f6e20455243373231526560008201527f63656976657220696d706c656d656e7465720000000000000000000000000000602082015250565b6000612f96603283611e21565b9150612fa182612f3a565b604082019050919050565b60006020820190508181036000830152612fc581612f89565b9050919050565b7f4552433732314d657461646174613a2055524920717565727920666f72206e6f60008201527f6e6578697374656e7420746f6b656e0000000000000000000000000000000000602082015250565b6000613028602f83611e21565b915061303382612fcc565b604082019050919050565b600060208201905081810360008301526130578161301b565b9050919050565b600081519050919050565b600082825260208201905092915050565b60006130858261305e565b61308f8185613069565b935061309f818560208601611e32565b6130a881611e5c565b840191505092915050565b60006080820190506130c86000830187611f5d565b6130d56020830186611f5d565b6130e26040830185612073565b81810360608301526130f4818461307a565b905095945050505050565b60008151905061310e81611d87565b92915050565b60006020828403121561312a57613129611d51565b5b6000613138848285016130ff565b91505092915050565b7f4e487b7100000000000000000000000000000000000000000000000000000000600052601260045260246000fd5b600061317b82611ec8565b915061318683611ec8565b92508261319657613195613141565b5b828204905092915050565b60006131ac82611ec8565b91506131b783611ec8565b9250826131c7576131c6613141565b5b828206905092915050565b7f4e487b7100000000000000000000000000000000000000000000000000000000600052603260045260246000fd5b7f4552433732313a206d696e7420746f20746865207a65726f2061646472657373600082015250565b6000613237602083611e21565b915061324282613201565b602082019050919050565b600060208201905081810360008301526132668161322a565b9050919050565b7f4552433732313a20746f6b656e20616c7265616479206d696e74656400000000600082015250565b60006132a3601c83611e21565b91506132ae8261326d565b602082019050919050565b600060208201905081810360008301526132d281613296565b9050919050565b7f4e487b7100000000000000000000000000000000000000000000000000000000600052605160045260246000fdfe697066733a2f2f516d64664e32464d4a53697342427072784736514a55565233737076586875593638754e43755033474b64356358a26469706673582212202bfab676b13a382a96845f61d6713815d77eddf649d41f2ddd4b93477f5ac06764736f6c63430008130033",
    "linkReferences": {},
    "deployedLinkReferences": {}
}