{
  "_format": "hh3-artifact-1",
  "contractName": "SimpleTest",
  "sourceName": "contracts/SimpleTest.sol",
  "abi": [
    {
      "inputs": [
        {
          "internalType": "address",
          "name": "trustedForwarder",
          "type": "address"
        }
      ],
      "stateMutability": "nonpayable",
      "type": "constructor"
    },
    {
      "anonymous": false,
      "inputs": [
        {
          "indexed": true,
          "internalType": "address",
          "name": "clicker",
          "type": "address"
        },
        {
          "indexed": false,
          "internalType": "uint256",
          "name": "timestamp",
          "type": "uint256"
        }
      ],
      "name": "ButtonClicked",
      "type": "event"
    },
    {
      "inputs": [],
      "name": "clickButton",
      "outputs": [],
      "stateMutability": "nonpayable",
      "type": "function"
    },
    {
      "inputs": [],
      "name": "clickCount",
      "outputs": [
        {
          "internalType": "uint256",
          "name": "",
          "type": "uint256"
        }
      ],
      "stateMutability": "view",
      "type": "function"
    },
    {
      "inputs": [],
      "name": "getCurrentClicker",
      "outputs": [
        {
          "internalType": "address",
          "name": "",
          "type": "address"
        }
      ],
      "stateMutability": "view",
      "type": "function"
    },
    {
      "inputs": [
        {
          "internalType": "address",
          "name": "user",
          "type": "address"
        }
      ],
      "name": "getUserStats",
      "outputs": [
        {
          "internalType": "uint256",
          "name": "clicks",
          "type": "uint256"
        },
        {
          "internalType": "bool",
          "name": "isLastClicker",
          "type": "bool"
        }
      ],
      "stateMutability": "view",
      "type": "function"
    },
    {
      "inputs": [
        {
          "internalType": "address",
          "name": "forwarder",
          "type": "address"
        }
      ],
      "name": "isTrustedForwarder",
      "outputs": [
        {
          "internalType": "bool",
          "name": "",
          "type": "bool"
        }
      ],
      "stateMutability": "view",
      "type": "function"
    },
    {
      "inputs": [],
      "name": "lastClickTime",
      "outputs": [
        {
          "internalType": "uint256",
          "name": "",
          "type": "uint256"
        }
      ],
      "stateMutability": "view",
      "type": "function"
    },
    {
      "inputs": [],
      "name": "lastClicker",
      "outputs": [
        {
          "internalType": "address",
          "name": "",
          "type": "address"
        }
      ],
      "stateMutability": "view",
      "type": "function"
    },
    {
      "inputs": [
        {
          "internalType": "address",
          "name": "",
          "type": "address"
        }
      ],
      "name": "userClickCount",
      "outputs": [
        {
          "internalType": "uint256",
          "name": "",
          "type": "uint256"
        }
      ],
      "stateMutability": "view",
      "type": "function"
    }
  ],
  "bytecode": "0x60a0604052348015600e575f5ffd5b506040516103a03803806103a0833981016040819052602b91603b565b6001600160a01b03166080526066565b5f60208284031215604a575f5ffd5b81516001600160a01b0381168114605f575f5ffd5b9392505050565b60805161031c6100845f395f818160ef0152610255015261031c5ff3fe608060405234801561000f575f5ffd5b5060043610610085575f3560e01c80636e76a585116100585780636e76a5851461015a5780637f3887c914610170578063a0cd69db14610178578063f45212c314610181575f5ffd5b80633bd0a6e5146100895780634e43603a14610093578063572b6c05146100df5780635c2b2cfa1461012f575b5f5ffd5b6100916101a0565b005b6100c56100a1366004610295565b6001600160a01b039081165f81815260016020526040902054600254909392161490565b604080519283529015156020830152015b60405180910390f35b61011f6100ed366004610295565b7f00000000000000000000000000000000000000000000000000000000000000006001600160a01b0390811691161490565b60405190151581526020016100d6565b600254610142906001600160a01b031681565b6040516001600160a01b0390911681526020016100d6565b6101625f5481565b6040519081526020016100d6565b610142610240565b61016260035481565b61016261018f366004610295565b60016020525f908152604090205481565b5f6101a961024e565b5f8054919250806101b9836102c2565b90915550506001600160a01b0381165f9081526001602052604081208054916101e1836102c2565b9091555050600280546001600160a01b0319166001600160a01b0383169081179091554260038190556040519081527fa1308dfe2a5e60c653e0dd87ecb5f4ea5c5d6b2c965722971c17d6ac3ac3c0979060200160405180910390a250565b5f61024961024e565b905090565b5f6102495f7f00000000000000000000000000000000000000000000000000000000000000006001600160a01b03163303610290575060131936013560601c90565b503390565b5f602082840312156102a5575f5ffd5b81356001600160a01b03811681146102bb575f5ffd5b9392505050565b5f600182016102df57634e487b7160e01b5f52601160045260245ffd5b506001019056fea264697066735822122001530f650810951be7a475f9f95401e9b08f301aa9762316b5c5fb184e8bf33b64736f6c634300081c0033",
  "linkReferences": {},
  "deployedLinkReferences": {},
  "immutableReferences": {
    "4": [
      {
        "length": 32,
        "start": 239
      },
      {
        "length": 32,
        "start": 597
      }
    ]
  },
  "inputSourceName": "project/contracts/SimpleTest.sol",
  "buildInfoId": "solc-0_8_28-5e0104c4db1179025900bee0567996650661cea2"
}