{
  "_format": "hh3-artifact-1",
  "contractName": "SimpleMint",
  "sourceName": "contracts/SimpleMint.sol",
  "abi": [
    {
      "inputs": [
        {
          "internalType": "address",
          "name": "trustedForwarder",
          "type": "address"
        }
      ],
      "stateMutability": "nonpayable",
      "type": "constructor"
    },
    {
      "anonymous": false,
      "inputs": [
        {
          "indexed": true,
          "internalType": "address",
          "name": "minter",
          "type": "address"
        },
        {
          "indexed": true,
          "internalType": "address",
          "name": "recipient",
          "type": "address"
        },
        {
          "indexed": false,
          "internalType": "uint256",
          "name": "quantity",
          "type": "uint256"
        }
      ],
      "name": "BatchMinted",
      "type": "event"
    },
    {
      "anonymous": false,
      "inputs": [
        {
          "indexed": true,
          "internalType": "address",
          "name": "minter",
          "type": "address"
        },
        {
          "indexed": true,
          "internalType": "address",
          "name": "recipient",
          "type": "address"
        },
        {
          "indexed": false,
          "internalType": "uint256",
          "name": "tokenId",
          "type": "uint256"
        }
      ],
      "name": "TokenMinted",
      "type": "event"
    },
    {
      "inputs": [],
      "name": "MAX_MINT_PER_USER",
      "outputs": [
        {
          "internalType": "uint256",
          "name": "",
          "type": "uint256"
        }
      ],
      "stateMutability": "view",
      "type": "function"
    },
    {
      "inputs": [],
      "name": "MAX_TOTAL_SUPPLY",
      "outputs": [
        {
          "internalType": "uint256",
          "name": "",
          "type": "uint256"
        }
      ],
      "stateMutability": "view",
      "type": "function"
    },
    {
      "inputs": [
        {
          "internalType": "address",
          "name": "",
          "type": "address"
        }
      ],
      "name": "balanceOf",
      "outputs": [
        {
          "internalType": "uint256",
          "name": "",
          "type": "uint256"
        }
      ],
      "stateMutability": "view",
      "type": "function"
    },
    {
      "inputs": [
        {
          "internalType": "address",
          "name": "recipient",
          "type": "address"
        },
        {
          "internalType": "uint256",
          "name": "quantity",
          "type": "uint256"
        }
      ],
      "name": "batchMint",
      "outputs": [],
      "stateMutability": "nonpayable",
      "type": "function"
    },
    {
      "inputs": [],
      "name": "getMinter",
      "outputs": [
        {
          "internalType": "address",
          "name": "",
          "type": "address"
        }
      ],
      "stateMutability": "view",
      "type": "function"
    },
    {
      "inputs": [
        {
          "internalType": "address",
          "name": "forwarder",
          "type": "address"
        }
      ],
      "name": "isTrustedForwarder",
      "outputs": [
        {
          "internalType": "bool",
          "name": "",
          "type": "bool"
        }
      ],
      "stateMutability": "view",
      "type": "function"
    },
    {
      "inputs": [
        {
          "internalType": "address",
          "name": "recipient",
          "type": "address"
        }
      ],
      "name": "mint",
      "outputs": [],
      "stateMutability": "nonpayable",
      "type": "function"
    },
    {
      "inputs": [],
      "name": "mintToSelf",
      "outputs": [],
      "stateMutability": "nonpayable",
      "type": "function"
    },
    {
      "inputs": [
        {
          "internalType": "address",
          "name": "",
          "type": "address"
        }
      ],
      "name": "mintedBy",
      "outputs": [
        {
          "internalType": "uint256",
          "name": "",
          "type": "uint256"
        }
      ],
      "stateMutability": "view",
      "type": "function"
    },
    {
      "inputs": [],
      "name": "mintingAvailable",
      "outputs": [
        {
          "internalType": "bool",
          "name": "",
          "type": "bool"
        }
      ],
      "stateMutability": "view",
      "type": "function"
    },
    {
      "inputs": [],
      "name": "nextTokenId",
      "outputs": [
        {
          "internalType": "uint256",
          "name": "",
          "type": "uint256"
        }
      ],
      "stateMutability": "view",
      "type": "function"
    },
    {
      "inputs": [
        {
          "internalType": "uint256",
          "name": "",
          "type": "uint256"
        }
      ],
      "name": "ownerOf",
      "outputs": [
        {
          "internalType": "address",
          "name": "",
          "type": "address"
        }
      ],
      "stateMutability": "view",
      "type": "function"
    },
    {
      "inputs": [
        {
          "internalType": "address",
          "name": "user",
          "type": "address"
        }
      ],
      "name": "remainingMintsFor",
      "outputs": [
        {
          "internalType": "uint256",
          "name": "",
          "type": "uint256"
        }
      ],
      "stateMutability": "view",
      "type": "function"
    },
    {
      "inputs": [],
      "name": "totalSupply",
      "outputs": [
        {
          "internalType": "uint256",
          "name": "",
          "type": "uint256"
        }
      ],
      "stateMutability": "view",
      "type": "function"
    }
  ],
  "bytecode": "0x60a0604052600180553480156012575f5ffd5b50604051610afd380380610afd833981016040819052602f91603f565b6001600160a01b0316608052606a565b5f60208284031215604e575f5ffd5b81516001600160a01b03811681146063575f5ffd5b9392505050565b608051610a746100895f395f818161016c01526108b90152610a745ff3fe608060405234801561000f575f5ffd5b50600436106100e5575f3560e01c80636352211e1161008857806375794a3c1161006357806375794a3c1461021e5780638a2daaf71461022757806395c11e9714610232578063f36675171461023a575f5ffd5b80636352211e146101ac5780636a627842146101ec57806370a08231146101ff575f5ffd5b80633cef28d2116100c35780633cef28d21461012057806343508b051461013f578063476aafad14610154578063572b6c051461015c575f5ffd5b806318160ddd146100e95780632befd3581461010457806333039d3d14610117575b5f5ffd5b6100f15f5481565b6040519081526020015b60405180910390f35b6100f1610112366004610914565b610242565b6100f16103e881565b6100f161012e366004610914565b60046020525f908152604090205481565b61015261014d36600461092d565b61027c565b005b610152610559565b61019c61016a366004610914565b7f00000000000000000000000000000000000000000000000000000000000000006001600160a01b0390811691161490565b60405190151581526020016100fb565b6101d46101ba366004610955565b60026020525f90815260409020546001600160a01b031681565b6040516001600160a01b0390911681526020016100fb565b6101526101fa366004610914565b6106f0565b6100f161020d366004610914565b60036020525f908152604090205481565b6100f160015481565b5f546103e81161019c565b6100f1600a81565b6101d46108a4565b6001600160a01b0381165f90815260046020526040812054600a8110156102735761026e81600a610980565b610275565b5f5b9392505050565b6001600160a01b0382166102ab5760405162461bcd60e51b81526004016102a290610999565b60405180910390fd5b5f811180156102bb575060058111155b6103125760405162461bcd60e51b815260206004820152602260248201527f53696d706c654d696e743a20696e76616c6964207175616e746974792028312d604482015261352960f01b60648201526084016102a2565b6103e8815f5461032291906109ce565b111561037c5760405162461bcd60e51b815260206004820152602360248201527f53696d706c654d696e743a20776f756c6420657863656564206d617820737570604482015262706c7960e81b60648201526084016102a2565b600a8160045f61038a6108b2565b6001600160a01b03166001600160a01b031681526020019081526020015f20546103b491906109ce565b11156104155760405162461bcd60e51b815260206004820152602a60248201527f53696d706c654d696e743a20776f756c6420657863656564206d6178206d696e6044820152693a103832b9103ab9b2b960b11b60648201526084016102a2565b6001545f5b82811015610465578360025f61043084866109ce565b815260208101919091526040015f2080546001600160a01b0319166001600160a01b039290921691909117905560010161041a565b506001600160a01b0383165f908152600360205260408120805484929061048d9084906109ce565b9091555082905060045f61049f6108b2565b6001600160a01b03166001600160a01b031681526020019081526020015f205f8282546104cc91906109ce565b92505081905550815f5f8282546104e391906109ce565b925050819055508160015f8282546104fb91906109ce565b90915550506001600160a01b0383166105126108b2565b6001600160a01b03167f9e450ddac88f83f694b164a23f8f2e357b7b582c5f3f4b3ab75ba0da0abcf8af8460405161054c91815260200190565b60405180910390a3505050565b5f6105626108b2565b90506001600160a01b03811661058a5760405162461bcd60e51b81526004016102a290610999565b6103e85f54106105dc5760405162461bcd60e51b815260206004820152601e60248201527f53696d706c654d696e743a206d617820737570706c792072656163686564000060448201526064016102a2565b6001600160a01b0381165f90815260046020526040902054600a116106135760405162461bcd60e51b81526004016102a2906109e1565b6001545f81815260026020908152604080832080546001600160a01b0319166001600160a01b03871690811790915583526003909152812080549161065783610a26565b90915550506001600160a01b0382165f90815260046020526040812080549161067f83610a26565b90915550505f8054908061069283610a26565b909155505060018054905f6106a683610a26565b90915550506040518181526001600160a01b0383169081907fdf1b2b09e9800d31c599375056be9f9e4eb37f078102643600c4e149714efaad906020015b60405180910390a35050565b6001600160a01b0381166107165760405162461bcd60e51b81526004016102a290610999565b6103e85f54106107685760405162461bcd60e51b815260206004820152601e60248201527f53696d706c654d696e743a206d617820737570706c792072656163686564000060448201526064016102a2565b600a60045f6107756108b2565b6001600160a01b03166001600160a01b031681526020019081526020015f2054106107b25760405162461bcd60e51b81526004016102a2906109e1565b6001545f81815260026020908152604080832080546001600160a01b0319166001600160a01b0387169081179091558352600390915281208054916107f683610a26565b919050555060045f6108066108b2565b6001600160a01b0316815260208101919091526040015f90812080549161082c83610a26565b90915550505f8054908061083f83610a26565b909155505060018054905f61085383610a26565b9190505550816001600160a01b031661086a6108b2565b6001600160a01b03167fdf1b2b09e9800d31c599375056be9f9e4eb37f078102643600c4e149714efaad836040516106e491815260200190565b5f6108ad6108b2565b905090565b5f6108ad5f7f00000000000000000000000000000000000000000000000000000000000000006001600160a01b031633036108f4575060131936013560601c90565b503390565b80356001600160a01b038116811461090f575f5ffd5b919050565b5f60208284031215610924575f5ffd5b610275826108f9565b5f5f6040838503121561093e575f5ffd5b610947836108f9565b946020939093013593505050565b5f60208284031215610965575f5ffd5b5035919050565b634e487b7160e01b5f52601160045260245ffd5b818103818111156109935761099361096c565b92915050565b6020808252818101527f53696d706c654d696e743a206d696e7420746f207a65726f2061646472657373604082015260600190565b808201808211156109935761099361096c565b60208082526025908201527f53696d706c654d696e743a206d6178206d696e742070657220757365722072656040820152641858da195960da1b606082015260800190565b5f60018201610a3757610a3761096c565b506001019056fea2646970667358221220d9de8cc21f0a5e3a3ff015e8080ed2121b8f4e857bc8dc920dc01ecedbeb314764736f6c634300081c0033",
  "linkReferences": {},
  "deployedLinkReferences": {},
  "immutableReferences": {
    "4": [
      {
        "length": 32,
        "start": 364
      },
      {
        "length": 32,
        "start": 2233
      }
    ]
  },
  "inputSourceName": "project/contracts/SimpleMint.sol",
  "buildInfoId": "solc-0_8_28-5aeb4b5b86b522a3e1f88aa48b174383d090deef"
}