{
  "_format": "hh3-artifact-1",
  "contractName": "TestCounter2",
  "sourceName": "contracts/TestCounter2.sol",
  "abi": [
    {
      "inputs": [
        {
          "internalType": "address",
          "name": "trustedForwarder",
          "type": "address"
        }
      ],
      "stateMutability": "nonpayable",
      "type": "constructor"
    },
    {
      "anonymous": false,
      "inputs": [
        {
          "indexed": false,
          "internalType": "address",
          "name": "_msgSender",
          "type": "address"
        }
      ],
      "name": "IncrementCounter",
      "type": "event"
    },
    {
      "inputs": [
        {
          "internalType": "address",
          "name": "",
          "type": "address"
        }
      ],
      "name": "contextCounter",
      "outputs": [
        {
          "internalType": "uint256",
          "name": "",
          "type": "uint256"
        }
      ],
      "stateMutability": "view",
      "type": "function"
    },
    {
      "inputs": [],
      "name": "increment",
      "outputs": [],
      "stateMutability": "nonpayable",
      "type": "function"
    },
    {
      "inputs": [
        {
          "internalType": "address",
          "name": "forwarder",
          "type": "address"
        }
      ],
      "name": "isTrustedForwarder",
      "outputs": [
        {
          "internalType": "bool",
          "name": "",
          "type": "bool"
        }
      ],
      "stateMutability": "view",
      "type": "function"
    }
  ],
  "bytecode": "0x60a0604052348015600e575f5ffd5b50604051610298380380610298833981016040819052602b91603b565b6001600160a01b03166080526066565b5f60208284031215604a575f5ffd5b81516001600160a01b0381168114605f575f5ffd5b9392505050565b6080516102146100845f395f81816053015261014d01526102145ff3fe608060405234801561000f575f5ffd5b506004361061003f575f3560e01c8063572b6c051461004357806382b7616814610098578063d09de08a146100c5575b5f5ffd5b61008361005136600461018d565b7f00000000000000000000000000000000000000000000000000000000000000006001600160a01b0390811691161490565b60405190151581526020015b60405180910390f35b6100b76100a636600461018d565b5f6020819052908152604090205481565b60405190815260200161008f565b6100cd6100cf565b005b5f5f6100d961014a565b6001600160a01b0316815260208101919091526040015f9081208054916100ff836101ba565b91905055507fb919ce44b7a69540a28d9b539349b0b525af0e18a935318fa1000b8840c7088861012d61014a565b6040516001600160a01b03909116815260200160405180910390a1565b5f7f00000000000000000000000000000000000000000000000000000000000000006001600160a01b03163303610188575060131936013560601c90565b503390565b5f6020828403121561019d575f5ffd5b81356001600160a01b03811681146101b3575f5ffd5b9392505050565b5f600182016101d757634e487b7160e01b5f52601160045260245ffd5b506001019056fea2646970667358221220d479db8a8495b97d5faba36ca4fb94d0cdc8983f4b93b7e44be5c0303479775564736f6c634300081c0033",
  "linkReferences": {},
  "deployedLinkReferences": {},
  "immutableReferences": {
    "4": [
      {
        "length": 32,
        "start": 83
      },
      {
        "length": 32,
        "start": 333
      }
    ]
  },
  "inputSourceName": "project/contracts/TestCounter2.sol",
  "buildInfoId": "solc-0_8_28-447aef8aae2f0347522c060c3f562e1df7b4f75e"
}